:1000000019C033C032C031C03EC22FC02EC02DC077
:100010002CC02BC02AC029C028C027C026C025C09C
:1000200024C023C022C021C020C01FC01EC01DC0CC
:100030001CC01BC011241FBECFEFD2E0DEBFCDBF5E
:1000400012E0A0E0B1E0E6EAF5E002C005900D9212
:10005000A230B107D9F712E0A2E0B2E001C01D92D0
:10006000AD31B107E1F73DD29CC2CACF8EE084B971
:1000700088E085B913B885EE8AB981E68BB919B8DD
:1000800080E387B988B916B80895E8E6F0E0808182
:1000900082608083ECE6F0E0808187608083089551
:1000A00081EA84BD81E085BD18BC88B587BD08950F
:1000B00081E88093B00081E08093B1001092B3009A
:1000C0000895982F80911802882309F4AEC09330C8
:1000D00009F476C0943038F4913009F48AC0923033
:1000E00009F05EC154C0953031F09530E8F096309B
:1000F00009F056C132C084B58F7084BD8091B000C4
:100100008F738093B0002A9A8BB180668BB9589A0E
:1001100088B1806388B90000000000000000000082
:10012000000000000000FFC084B58F7084BD809186
:10013000B0008F738093B0002A9A8BB180668BB920
:10014000589A88B1806388B9000000000000000060
:10015000000000000000000000C184B58F7084BD65
:100160008091B0008F738093B0002A9A8BB1806623
:100170008BB9589A88B1806388B9000000000000EC
:100180000000000000000000000058987BC084B50B
:100190008F7084BD8091B0008F738093B0002A9AD5
:1001A0008BB180668BB9589A88B1806388B900009A
:1001B000000000000000000000000000000061C01E
:1001C00084B58F7084BD8091B0008F738093B00030
:1001D0002A9A8BB180668BB9589A88B1806388B9A6
:1001E000000000000000000000000000000000000F
:1001F00067C084B58F7084BD8091B0008F73809389
:10020000B0002A9A8BB180668BB9589A88B1806306
:1002100088B900000000000000000000000000009D
:100220000000449884B580689BC0933009F47DC079
:10023000943038F4913009F495C0923009F0B0C090
:100240005AC0953031F0953018F1963009F0A8C0B9
:1002500039C084B58F7084BD8091B0008F73809356
:10026000B0002A9A8BB180668BB9589A88B18063A6
:1002700088B900000000000000000000000000003D
:10028000000045988091B00080688093B000089588
:1002900084B58F7084BD8091B0008F738093B0005F
:1002A0002A9A8BB180668BB9589A88B1806388B9D5
:1002B000000000000000000000000000000000003E
:1002C0004598B0CF84B58F7084BD8091B0008F7396
:1002D0008093B0002A9A8BB180668BB9589A88B106
:1002E000806388B9000000000000000000000000EA
:1002F0000000000096CF84B58F7084BD8091B0005F
:100300008F738093B0002A9A8BB180668BB9589A0C
:1003100088B1806388B90000000000000000000080
:10032000000000000000449819C084B58F7084BD9F
:100330008091B0008F738093B0002A9A8BB1806651
:100340008BB9589A88B1806388B90000000000001A
:1003500000000000000000000000589884B5806292
:1003600084BD089584B58F7084BD8091B0008F7373
:100370008093B0002A9A8BB180668BB9589A88B165
:10038000806388B900000000000000000000000049
:100390000000000058988091B00080688093B00001
:1003A00008950F931F93082F86B190E08E70907080
:1003B00095958795182F85DE0093B3008091B30043
:1003C00090E090938B0080938A0080918A009091B6
:1003D0008B009093890080938800402F86B1212F55
:1003E00030E090E08770907028173907E9F0812F8E
:1003F00068DE809168008260809368000093B3009B
:100400008091B30090E090938B0080938A0080915C
:100410008A0090918B0090938900809388001092BD
:10042000000121E030E02BC026B14150A1F48FEF54
:100430008093B3008FEF90E090938B0080938A00BD
:1004400080918A0090918B0090938900809388001E
:1004500020E030E014C0122F17704093B300809159
:10046000B30090E090938B0080938A0080918A0083
:1004700090918B009093890080938800AFCFC90141
:100480001F910F9108951F920F920FB60F92112492
:100490002F933F934F935F936F937F938F939F938C
:1004A000AF93BF93EF93FF93809112029091130249
:1004B0000196909313028093120286B1877001DE39
:1004C000FF91EF91BF91AF919F918F917F916F912C
:1004D0005F914F913F912F910F900FBE0F901F9002
:1004E0001895F894C3DD299A88E893E128EC30E068
:1004F000F9013197F1F70197D9F729988BB1805815
:100500008BB988E893E128EC30E0F9013197F1F7F5
:100510000197D9F7299A8BB180588BB988E893E174
:1005200028EC30E0F9013197F1F70197D9F78BB159
:1005300080588BB929988091680082608093680008
:1005400080916C00876080936C0081EA84BD91E0AB
:1005500095BD18BC88B587BD81E88093B0009093A5
:10056000B1001092B300789484B58F7084BD8091EF
:10057000B0008F738093B0002A9A8BB180668BB9DC
:1005800020E43CE9589888B18F7C88B9C90101976B
:10059000F1F7589A88B1806388B9C9010197F1F7DA
:0605A000F1CFF894FFCF3B
:1005A6000101010203040506060707080809090AEE
:1005B6000A0B0C0D0E0F101112131415161718191D
:1005C6001A1B1C1D1E1F202122232425262728290D
:1005D6002A2B2C2D2E2F30313233343536373839FD
:1005E6003A3B3C3D3E3F40414243444546474849ED
:1005F6004A4B4C4D4E4F50515253545556575859DD
:100606005A5B5C5D5E5F60616263646566676869CC
:100616006A6B6C6D6E6F70717273747576777879BC
:100626007A7B7C7D7E7F80818283848586878889AC
:100636008A8B8C8D8E8F909192939495969798999C
:100646009A9B9C9D9E9FA0A1A2A3A4A5A6A7A8A98C
:10065600AAABACADAEAFB0B1B2B3B4B5B6B7B8B97C
:10066600BABBBCBDBEBFC0C1C2C3C4C5C6C7C8C96C
:10067600CACBCCCDCECFD0D1D2D3D4D5D6D7D8D95C
:10068600DADBDCDDDEDFE0E1E2E3E4E5E6E7E8E94C
:10069600EAEBECEDEFF3F7FBFFFFFFFFFFFFFFFFDA
:0206A600FFFF54
:00000001FF
