:1000000019C068C027C026C025C024C023C022C094
:1000100021C020C01FC01EC01DC01CC01BC01AC0F4
:1000200019C018C058C316C064C314C013C012C08E
:1000300011C010C011241FBECFEFD2E0DEBFCDBF74
:1000400011E0A0E0B1E001C01D92A432B107E1F7D8
:10005000E4D08DC3D5CF82E88AB990E89BB919B8AE
:1000600088E087B998B916B80895E9E6F0E080818C
:1000700082608083E89A089507C022EC35E0000092
:1000800021503040E1F701970097B9F70895FF92AA
:100090000F931F93CF93DF93C82FD0E0CC0FDD1FBA
:1000A00010E082E0F82E08E00AC08BB18F258BB9F2
:1000B0008AEF90E0E1DF88B1802788B91F5F812F48
:1000C00090E08C179D078CF3DF91CF911F910F91DA
:1000D000FF9008951F920F920FB60F9211242F9345
:1000E0003F934F935F936F937F938F939F93AF93C0
:1000F000BF93EF93FF9382E0CADFFF91EF91BF912F
:10010000AF919F918F917F916F915F914F913F91AF
:100110002F910F900FBE0F901F9018952F923F9226
:100120004F925F926F927F928F929F92AF92BF9207
:10013000CF92DF92EF92FF920F931F93DF93CF93B3
:10014000CDB7DEB760970FB6F894DEBF0FBECDBF58
:10015000888B88E08E8387E08F8386E0888785E0C0
:10016000898784E08A8783E08B8782E08C8781E0BF
:100170008D87992446E0442E4AE1542E40EF642EA8
:1001800048E1742E38E0832E28EB222E312C29C032
:10019000A42C49825A826B827C828E861D821F86A5
:1001A000BA80CB80DC80EE24FE800F811885298503
:1001B0003A854B855C856D8578E080E0E4D08AE205
:1001C00090E062D088EE93E0F1013197F1F701976A
:1001D000D9F78BB192E089278BB988B1882588B986
:1001E000939488899816A0F260960FB6F894DEBFB3
:1001F0000FBECDBFCF91DF911F910F91FF90EF9078
:10020000DF90CF90BF90AF909F908F907F906F9036
:100210005F904F903F902F9008951F931CDF809127
:100220006900826080936900E89A88B198E0892724
:1002300088B983E047D018E084E070DF88B1812777
:1002400088B9FACF84B18C6284B92A9A2D9881E555
:100250008CBD08958EBD0DB407FEFDCF8EB50895FB
:10026000982F2A9882E08EBD0DB407FEFDCF8EB583
:100270009EBD0DB407FEFDCF8EB56EBD0DB407FE5D
:10028000FDCF8EB52A9A0895982F2A9883E08EBDC7
:100290000DB407FEFDCF8EB59EBD0DB407FEFDCF9C
:1002A0008EB58FEF8EBD0DB407FEFDCF8EB52A9AA9
:1002B00008952A9880EC8EBD0DB407FEFDCF8EB553
:1002C0002A9A08951F93182FBDDFF3DF8FE060E8AF
:1002D000C7DF80E260E0C4DF81E260E0C1DF80E090
:1002E00060E0BEDF81E060E0BBDF8AE2612FB8DF63
:1002F00089E260E9B5DF88E262E0B2DF81E36FEFB7
:10030000AFDF82E360EEACDF81E660E0A9DF82E68A
:1003100060E6A6DF80E660E6A3DF85E668E0A0DFB2
:100320008CE260E09DDF8BE261E09ADF8BE26FE3BD
:1003300097DF8CE065E094DF8FE064E091DF8EE092
:10034000A3DF80932301882319F08FE064E088DF26
:100350001F910895982F2A9885E08EBD0DB407FE51
:10036000FDCF8EB59EBD0DB407FEFDCF8EB56EBD23
:100370000DB407FEFDCF8EB54EBD0DB407FEFDCF0B
:100380008EB52A9A08953F924F925F926F927F9214
:100390008F929F92AF92BF92CF92DF92EF92FF9295
:1003A0000F931F93DF93CF93CDB7DEB72F970FB681
:1003B000F894DEBF0FBECDBFA982BA82CB82DC82A9
:1003C000DE2CED82EF2CFE82F02E0F83B12F1887EA
:1003D000A22F2987F32F3A874B875C876D877E870B
:1003E0008F87172F89809A80AB80BC800B2F7A2E45
:1003F0006F2E542E452E362E793010F080E07FC0BF
:1004000080E0881688E0980680E0A80680E0B806BC
:10041000C0F1DD2019F4650154010AC081E090E0CB
:10042000A0E0B0E088299929AA29BB295C016D01C7
:10043000A601950175E156954795379527957A95CB
:10044000D1F781E3622F0CDFA60195016DE056958F
:100450004795379527956A95D1F7207EC601AA273B
:10046000BB278370282B286082E3622FF9DE552793
:100470004D2D3C2D2B2D83E3622FF2DE84E36A2D7C
:1004800013C0A501940183E05695479537952795AC
:100490008A95D1F781E3622FE3DE682D6295660FBE
:1004A000607ED110606182E3DBDE85E3612FD8DE00
:1004B00086E36E2DD5DE87E36F2DD2DE88E3602FD5
:1004C000CFDE89E3672DCCDE8AE3662DC9DE8BE3C0
:1004D000652DC6DE8CE3642DC3DE8DE3632DC0DEA7
:1004E0002A9881E88EBD0DB407FEFDCF8EB580E35E
:1004F0008EBD0DB407FEFDCF8EB52A9A81E02F96F2
:100500000FB6F894DEBF0FBECDBFCF91DF911F9124
:100510000F91FF90EF90DF90CF90BF90AF909F90A2
:100520008F907F906F905F904F903F9008951092C2
:10053000C5008BE08093C40088E98093C10086E009
:100540008093C20008951092C5008BE08093C40090
:1005500088E98093C10086E08093C2000895582FF7
:10056000282F392FF90107C08091C00085FFFCCFEB
:1005700081918093C6008E2F851B8617A8F308955E
:100580001F93182F8A3011F48DE0FADF909100014B
:100590009F5F9F71809101019817E1F3E92FF0E0CF
:1005A000EE5FFE4F1083909300018091C100806246
:1005B0008093C1001F910895CF93DF93EC0101C098
:1005C000DFDFFE01219684918823D1F7DF91CF915F
:1005D0000895DF92EF92FF920F931F93DF93CF93D3
:1005E000CDB7DEB72A970FB6F894DEBF0FBECDBFEA
:1005F000382F292FD62E062F10E0FE013196E00F5E
:10060000F11F0EC0832F922F6AE070E09CD0805DB6
:100610008083832F922F6AE070E095D0362F272FAA
:100620003197EC17FD0771F720E0B8016150704079
:10063000DE0111960EC0FD01E80FF91F80818033A5
:1006400031F07E010894E11CF11C87010CC040834D
:100650002F5F822F90E0861797076CF3F2CFF80197
:1006600081918F018DDF802F8E198D15C0F32A9611
:100670000FB6F894DEBF0FBECDBFCF91DF911F91B3
:100680000F91FF90EF90DF900895DF93CF9300D00C
:10069000CDB7DEB7282F982F92959F70892F805D58
:1006A00089838A3310F0995C9983922F9F70892FE8
:1006B000805D8A838A3310F0995C9A83CE0101961B
:1006C00061E04DDFCE01029661E049DF0F900F90AF
:1006D000CF91DF9108951F920F920FB60F921124C0
:1006E0008F938091C6008F910F900FBE0F901F9037
:1006F00018951F920F920FB60F9211248F939F930C
:10070000EF93FF939091000180910101981769F098
:10071000E0910101EF5FEF71E0930101F0E0EE5F26
:10072000FE4F80818093C60005C08091C1008F7DFF
:100730008093C100FF91EF919F918F910F900FBE19
:100740000F901F901895AA1BBB1B51E107C0AA1F51
:10075000BB1FA617B70710F0A61BB70B881F991F62
:100760005A95A9F780959095BC01CD010895F8940C
:02077000FFCFB9
:00000001FF
