:1000000043C052C051C050C04FC04EC04DC04CC084
:100010004BC04AC049C048C047C046C045C044C0A4
:1000200043C042C0D8C240C0E4C23EC03DC03CC094
:100030003BC03AC0203A2000444279746520005207
:10004000656D6F7465205472616E736D69742052B2
:100050006571756573740A005374616E64617264CE
:10006000204964656E746966696572203A200052A1
:10007000656D6F7465205472616E736D6974205282
:100080006571756573740A0011241FBECFEFD2E04D
:10009000DEBFCDBF11E0A0E0B1E001C01D92A232F1
:1000A000B107E1F70DD0E3C2ABCF07C022EC35E0DA
:1000B000000021503040E1F701970097B9F708950B
:1000C000EF92FF920F931F93EED08CE28ED090E0D0
:1000D00083709070892BC9F382E687D0E82EF82EC2
:1000E000F294F69447E0F42283FF1BC081E67DD0B2
:1000F000082F10E033E0000F111F3A95E1F78F2D24
:1001000090E0082B192B812F50D2802F4ED28AE0FD
:10011000C7D185E66AD086FF21C08FE690E0DCD1AA
:100120001DC088E590E0D8D181E65FD0082F10E0AF
:1001300023E0000F111F2A95E1F78F2D90E0082B87
:10014000192B812F32D2802F30D28AE0A9D1E4FE40
:1001500005C08FE390E0C0D111E001C010E085E65A
:1001600044D09FE0F92EF8221123B1F400E012C030
:10017000802F8A593AD0182F88E390E0ADD1802F94
:10018000805D8ED184E390E0A7D1812F0ED28AE0EA
:1001900087D10F5F0F1560F38AE082D18CE261E0B6
:1001A00040E04CD092CF84B18C6284B92A9A2D98C9
:1001B00080E58CBD08958EBD0DB407FEFDCF8EB5D4
:1001C0000895982F2A9882E08EBD0DB407FEFDCFCA
:1001D0008EB59EBD0DB407FEFDCF8EB56EBD0DB4C0
:1001E00007FEFDCF8EB52A9A0895982F2A9883E0AE
:1001F0008EBD0DB407FEFDCF8EB59EBD0DB407FEBE
:10020000FDCF8EB58FEF8EBD0DB407FEFDCF8EB541
:100210002A9A0895982F897F11F080E008952A98EE
:1002200090699EBD0DB407FEFDCF8EB58FEF8EBDDC
:100230000DB407FEFDCF8EB52A9A0895982F2A98FF
:1002400085E08EBD0DB407FEFDCF8EB59EBD0DB40D
:1002500007FEFDCF8EB56EBD0DB407FEFDCF8EB58A
:100260004EBD0DB407FEFDCF8EB52A9A0895982F86
:100270002A9882E08EBD0DB407FEFDCF8EB59EBDDF
:100280000DB407FEFDCF8EB5FB0107C080818EBD8A
:100290000DB407FEFDCF31968EB58E2F861B8417C9
:1002A000A8F32A9A08950F931F93DF93CF9300D05A
:1002B00000D0CDB7DEB777DF2A9880EC8EBD0DB4C5
:1002C00007FEFDCF8EB52A9A8FE060EE40E8B6DFDC
:1002D0008AE263E076DF89E260E973DF88E263E067
:1002E00070DF8BE263E06DDF80E660E66ADF80E767
:1002F00060E667DF19821A821B821C8280E08E0111
:100300000F5F1F4FB80144E0B2DF84E0B80144E062
:10031000AEDF88E0B80144E0AADF80E1B80144E044
:10032000A6DF84E1B80144E0A2DF88E1B80144E03F
:100330009EDF80E2B80144E09ADF84E2B80144E045
:1003400096DF8CE060E03DDF8DE060E03ADF8FE03B
:1003500060EE40E073DF0F900F900F900F90CF9101
:10036000DF911F910F910895982F2A9883E08EBDF9
:100370000DB407FEFDCF8EB59EBD0DB407FEFDCFBB
:100380008EB5FB019FEF06C09EBD0DB407FEFDCFED
:100390008EB581938E2F861B8417B0F32A9A089509
:1003A000AF92BF92CF92DF92EF92FF920F931F9383
:1003B000DF93CF9300D000D0CDB7DEB76B017C01C7
:1003C0005A01122F293008F010E080E363E043E087
:1003D00035DF06FF22C0D701C601E5E1B695A79536
:1003E00097958795EA95D1F78983C701AA27BB27F7
:1003F0008370A70196016DE056954795379527952F
:100400006A95D1F7207E822B88608A83BB27AF2D27
:100410009E2D8D2D8B83CC8211C0D701C60123E088
:10042000B695A795979587952A95D1F789838C2DB1
:100430008295880F807E8A831B821C8281E3BE01A5
:100440006F5F7F4F44E013DF07FF04C0612F6064DC
:1004500085E302C085E3612FB4DE86E3B501412F59
:1004600006DF2A9881E8A7DE2A9A0F900F900F9056
:100470000F90CF91DF911F910F91FF90EF90DF9040
:10048000CF90BF90AF9008951092C5008BE08093FD
:10049000C40088E98093C10086E08093C20008957B
:1004A0001F93182F8A3011F48DE0FADF909100012C
:1004B0009F5F9F71809101019817E1F3E92FF0E0B0
:1004C000EE5FFE4F1083909300018091C100806227
:1004D0008093C1001F910895CF93DF93EC0101C079
:1004E000DFDFFE01219684918823D1F7DF91CF9140
:1004F0000895DF92EF92FF920F931F93DF93CF93B4
:10050000CDB7DEB72A970FB6F894DEBF0FBECDBFCA
:10051000382F292FD62E062F10E0FE013196E00F3E
:10052000F11F0EC0832F922F6AE070E08CD0805DA7
:100530008083832F922F6AE070E085D0362F272F9B
:100540003197EC17FD0771F720E0B801615070405A
:10055000DE0111960EC0FD01E80FF91F8081803386
:1005600031F07E010894E11CF11C87010CC040832E
:100570002F5F822F90E0861797076CF3F2CFF80178
:1005800081918F018DDF802F8E198D15C0F32A96F2
:100590000FB6F894DEBF0FBECDBFCF91DF911F9194
:1005A0000F91FF90EF90DF9008951F93282F982FC1
:1005B00092959F70892F805D8A3308F0895F922F12
:1005C0009F70192F105D1A3308F0195F69DF812FB2
:1005D00067DF1F9108951F920F920FB60F9211249B
:1005E0008F938091C6008F910F900FBE0F901F9038
:1005F00018951F920F920FB60F9211248F939F930D
:10060000EF93FF939091000180910101981769F099
:10061000E0910101EF5FEF71E0930101F0E0EE5F27
:10062000FE4F80818093C60005C08091C1008F7D00
:100630008093C100FF91EF919F918F910F900FBE1A
:100640000F901F901895AA1BBB1B51E107C0AA1F52
:10065000BB1FA617B70710F0A61BB70B881F991F63
:100660005A95A9F780959095BC01CD010895F8940D
:02067000FFCFBA
:00000001FF
