:1000000019C0F1C076C131C030C02FC02EC02DC084
:100010002CC02BC02AC029C028C027C026C025C09C
:10002000CAC023C022C021C020C01FC01EC01DC026
:100030001CC01BC011241FBECFEFD2E0DEBFCDBF5E
:1000400012E0A0E0B1E0E0E7F8E002C005900D9218
:10005000A830B107D9F712E0A8E0B2E001C01D92C4
:10006000A431B107E1F71CD201C4CACF8EE384B931
:1000700015B813B88FE087B980E188B916B883EE58
:100080008AB91BB819B80895E0EBF0E08081836865
:100090008083E1EBF0E080818160808380E8809361
:1000A000B3000895EAE8F0E0118210828081918126
:1000B000909389008093880081EA8093800081E09A
:1000C0008093810008958FE08093690083E08DBB69
:1000D000089580E680937C0085E880937A001092F2
:1000E0007B0080EE80937E00089590917C00982B99
:1000F00090937C0080917A00806480937A00809154
:100100007A0086FDFCCF80917C00807F80937C000C
:100110008091790090E008952C9A2D988BB190E20F
:1001200089278BB980ED97E028EC30E0F901319711
:10013000F1F70197D9F78BB190E489278BB92D9A04
:100140002C988BB190E289278BB980ED97E028EC51
:1001500030E0F9013197F1F70197D9F78BB190E4CD
:1001600089278BB92C9A2D988BB190E289278BB96E
:1001700080ED97E028EC30E0F9013197F1F7019735
:10018000D9F78BB190E489278BB92D9A2C988BB134
:1001900090E289278BB980ED97E028EC30E0F901F7
:1001A0003197F1F70197D9F78BB190E489278BB993
:1001B0002D985D9808951F920F920FB60F921124FB
:1001C0008F9316BC809108028F5F80930802809104
:1001D0000802853610F0109208028F910F900FBE22
:1001E0000F901F9018951F920F920FB60F92112427
:1001F0002F934F935F938F939F9380910002882357
:1002000091F180910902882371F416BC85B5816053
:1002100085BD80916E00816080936E0010920F0208
:1002200010920E0213C08091080226B590E002964B
:1002300045E0880F991F4A95E1F726952695269562
:10024000820F911D90930F0280930E0280910902FC
:100250008F5F80930902809169008E7F809369008F
:10026000109200023CC08091080226B540910E0217
:1002700050910F0290E00296689414F8880F991F2D
:100280001694E1F7269526952695820F911D841BDD
:10029000950B90930B0280930A0280910902815082
:1002A0008093090280910902882351F41092080278
:1002B00085B58D7F85BD80916E008E7F80936E00A9
:1002C00081E0809312029091020291609093020269
:1002D00090916900916090936900809300029F91D2
:1002E0008F915F914F912F910F900FBE0F901F90A4
:1002F00018951F920F920FB60F9211242F934F93C0
:100300005F938F939F9380910102882391F1809155
:100310000902882371F416BC85B5816085BD809182
:100320006E00816080936E00109211021092100294
:1003300013C08091080226B590E0029645E0880F30
:10034000991F4A95E1F7269526952695820F911DCE
:100350009093110280931002809109028F5F809325
:100360000902809169008B7F8093690010920102DD
:100370003CC08091080226B54091100250911102B4
:1003800090E00296689414F8880F991F1694E1F78C
:10039000269526952695820F911D841B950B90938B
:1003A0000D0280930C028091090281508093090212
:1003B00080910902882351F41092080285B58D7F3F
:1003C00085BD80916E008E7F80936E0081E080936A
:1003D0001302909102029260909302029091690040
:1003E000946090936900809301029F918F915F9137
:1003F0004F912F910F900FBE0F901F9018951816C8
:10040000190624F45898419A409803C0589A409A83
:10041000419890930402809303021616170624F461
:100420005998439A429803C0599A429A43987093B4
:1004300006026093050297FF03C0909581959F4F38
:1004400077FF03C0709561957F4F21E08D3F920744
:1004500014F08CEF91E095958795909389008093A7
:10046000880081E06D3F780714F06CEF71E07595BE
:10047000679570938B0060938A000895EAE8F0E036
:1004800011821082808191819093890080938800ED
:100490008DE08A95F1F741984098439842980895E5
:1004A0002F923F924F925F926F927F928F929F9284
:1004B000AF92BF92CF92DF92EF92FF920F931F9372
:1004C000CF93DF93F894D2DD27DE10928B00109249
:1004D0008A0080918A0090918B009093890080938C
:1004E000880081EA8093800081E080938100809180
:1004F000B00083688093B0008091B10081608093E8
:10050000B10080E88093B30080E680937C0085E8AA
:1005100080937A0010927B0080EE80937E008FB7EC
:1005200080688FBF8FE08093690083E08DBB40E0DF
:1005300050E020E030E0E0E468EE73E08BB18E271D
:100540008BB9809102028330C9F4109202024730C5
:10055000510518F44F5F5F4F11C088249924662419
:100560007724AA24BB2455245394CC24DD249FEF64
:10057000292E91E0392E8DE0482E0EC0CB01019737
:10058000F1F78AE32939380741F32F5F3F4FD6CF80
:100590000894A11CB11C3E018BB190E489278BB952
:1005A00080910202833009F0E3C0552009F4E0C0D5
:1005B00085B120E1822785B91092130280910C0247
:1005C00090910D028C5D954090930D0280930C02EA
:1005D00080910C0290910D02479724F05998439A0C
:1005E000429817C080910C0290910D028A5E9F4F35
:1005F000DCF480910C0290910D0297FF03C090955E
:1006000081959F4F90930D0280930C02599A429AC4
:10061000439880910C0290910D0295958795909347
:100620000D0280930C020DC0109289001092880078
:10063000842D8A95F1F74398429810920D021092FA
:100640000C0280910C0290910D028050924084F037
:1006500080910C0290910D02835192402CF01092E7
:100660000D0210920C0204C030920D0220920C0276
:10067000E0910C02F0910D02E050FF4F808190E07C
:100680009093890080938800809102028D7F8093EF
:1006900002021092120280910A0290910B028C5D6C
:1006A000954090930B0280930A0280910A029091E8
:1006B0000B02479724F05898419A409817C08091B0
:1006C0000A0290910B028A5E9F4FDCF480910A022D
:1006D00090910B0297FF03C0909581959F4F909347
:1006E0000B0280930A02589A409A419880910A021C
:1006F00090910B029595879590930B0280930A0237
:100700000DC010928B0010928A00842D8A95F1F70B
:100710004198409810920B0210920A0280910A02AE
:1007200090910B028050924084F080910A02909147
:100730000B02835192402CF010920B0210920A028D
:1007400004C030920B0220920A02E0910A02F0915A
:100750000B02E050FF4F808190E090938B008093DC
:100760008A00809102028E7F80930202AA24BB2419
:1007700085E0BBDC7C0186E0B8DC8C0187E0B5DC81
:10078000000F111F000F111F003F110568F4E30156
:10079000219621E7621627E1720648F02CE1C0326B
:1007A000D20710F45D9A03C05D98C0E0D0E0880FD6
:1007B000991F880F991F89559240C8F08BE8C81679
:1007C00082E0D80624F40894C11CD11C1FC02D9AC5
:1007D0005D9A10928B0010928A0080918A0090910D
:1007E0008B00909389008093880055240DC090EF72
:1007F000C91698EDD90624F00894C108D10806C09E
:100800002D985D9855245394CC24DD24EE0CFF1CC8
:10081000EE0CFF1C2AE6E21621E0F20658F481ED08
:10082000881687E0980624F40894811C911C0EC059
:100830005F9A0AC090E3891698EF990624F008940D
:100840008108910803C05F988824992429E7A2169B
:1008500025E0B20608F49CCE85B190E1892785B9E0
:10086000109202020BDEAA24BB2495CEF894FFCF8F
:1008700000000000000000000000060708090A0B45
:100880000C0D0E0F101112131415161718191A1B30
:100890001C1D1E1F202122232425262728292A2B20
:1008A0002C2D2E2F303132333435363738393A3B10
:1008B0003C3D3E3F404142434445464748494A4B00
:1008C0004C4D4E4F505152535455565758595A5BF0
:1008D0005C5D5E5F606162636465666768696A6BE0
:1008E0006C6D6E6F707172737475767778797A7BD0
:1008F0007C7D7E7F808182838485868788898A8BC0
:100900008C8D8E8F909192939495969798999A9BAF
:100910009C9D9E9FA0A1A2A3A4A5A6A7A8A9AAAB9F
:10092000ACADAEAFB0B1B2B3B4B5B6B7B8B9BABB8F
:10093000BCBDBEBFC0C1C2C3C4C5C6C7C8C9CACB7F
:10094000CCCDCECFD0D1D2D3D4D5D6D7D8D9DADB6F
:10095000DCDDDEDFE0E1E2E3E4E5E6E7E8E9EAEB5F
:10096000ECEDEEEFF0F1F2F3F4F5F6F7F8F9FAFB4F
:08097000010101FFFFFFFF0080
:00000001FF
