:1000000019C0FBC080C131C030C02FC02EC02DC070
:100010002CC02BC02AC029C028C027C026C025C09C
:10002000D4C023C022C021C020C01FC01EC01DC01C
:100030001CC01BC011241FBECFEFD2E0DEBFCDBF5E
:1000400013E0A0E0B1E0EAE3F7E002C005900D9212
:10005000A830B107D9F713E0A8E0B3E001C01D92C2
:10006000A631B107E1F719D266C3CACF8EE384B9CE
:1000700015B813B88FE087B980E188B916B883EE58
:100080008AB91BB819B80895E0EBF0E08081836865
:100090008083E1EBF0E080818160808380E8809361
:1000A000B300089581EA8093800081E0809381000D
:1000B000EAE8F0E0118210828081918190938900BA
:1000C0008093880008958FE08093690083E08DBB62
:1000D000089580E680937C0085E880937A0086E02E
:1000E00080937E000895ACE7B0E09C91982B9C93A0
:1000F000EAE7F0E0808180648083808180818F7B6B
:1001000080834091790050E0440F551F440F551FE4
:10011000209178008C91807F8C932295269526954E
:10012000237030E0242B352BC90108952C9A2D988B
:100130008BB190E289278BB980EA9FE028EC30E010
:10014000F9013197F1F70197D9F78BB190E489273D
:100150008BB92D9A2C988BB190E289278BB980EAC4
:100160009FE028EC30E0F9013197F1F70197D9F7DA
:100170008BB190E489278BB92C9A2D988BB190E2A2
:1001800089278BB980EA9FE028EC30E0F9013197AC
:10019000F1F70197D9F78BB190E489278BB92D9AA4
:1001A0002C988BB190E289278BB980EA9FE028ECEC
:1001B00030E0F9013197F1F70197D9F78BB190E46D
:1001C00089278BB92D985D9808951F920F920FB6CD
:1001D0000F9211248F9316BC80910A038F5F809336
:1001E0000A0380910A03853610F010920A038F915A
:1001F0000F900FBE0F901F9018951F920F920FB681
:100200000F9211242F934F935F938F939F9380911D
:100210000003882391F180910B03882371F416BCAD
:1002200085B5816085BD80916E00816080936E0090
:10023000109211031092100313C080910A0326B587
:1002400090E0029645E0880F991F4A95E1F72695C0
:1002500026952695820F911D90931103809310038C
:1002600080910B038F5F80930B03809169008E7FD9
:1002700080936900109200033CC080910A0326B568
:10028000409110035091110390E00296689414F885
:10029000880F991F1694E1F7269526952695820FCB
:1002A000911D841B950B90930D0380930C038091FB
:1002B0000B03815080930B0380910B03882351F42F
:1002C00010920A0385B58D7F85BD80916E008E7F6B
:1002D00080936E0081E080931403909102039160FB
:1002E00090930203909169009160909369008093CC
:1002F00000039F918F915F914F912F910F900FBEAF
:100300000F901F9018951F920F920FB60F92112405
:100310002F934F935F938F939F9380910103882333
:1003200091F180910B03882371F416BC85B581602F
:1003300085BD80916E00816080936E0010921303E2
:100340001092120313C080910A0326B590E0029622
:1003500045E0880F991F4A95E1F726952695269541
:10036000820F911D909313038093120380910B03CE
:100370008F5F80930B03809169008B7F809369006E
:10038000109201033CC080910A0326B540911203EC
:100390005091130390E00296689414F8880F991F07
:1003A0001694E1F7269526952695820F911D841BBC
:1003B000950B90930F0380930E0380910B03815054
:1003C00080930B0380910B03882351F410920A034E
:1003D00085B58D7F85BD80916E008E7F80936E0088
:1003E00081E0809315039091020392609093020341
:1003F00090916900946090936900809301039F91AC
:100400008F915F914F912F910F900FBE0F901F9082
:1004100018951816190624F45898419A409803C064
:10042000589A409A419890930403809303031616B8
:10043000170624F45998439A429803C0599A429A4D
:100440004398709306036093050397FF03C090954C
:1004500081959F4F77FF03C0709561957F4F21E095
:100460008D3F920714F08CEF91E0959587959093CE
:1004700089008093880081E06D3F780714F06CEF6D
:1004800071E07595679570938B0060938A0008956D
:10049000419A409A439A429A08957F928F929F92EE
:1004A000AF92BF92CF92DF92EF92FF920F931F9382
:1004B000CF93DF93DBDD3ADEEBDF81EA80938000D0
:1004C00081E08093810010928B0010928A008091CD
:1004D0008A0090918B00909389008093880080918E
:1004E000B00083688093B0008091B10081608093F8
:1004F000B10080E88093B30080E680937C0085E8BB
:1005000080937A0086E080937E008FB780688FBFEB
:100510008FE08093690083E08DBB80E090E060E035
:1005200070E077DFEE24FF24BB24B394CC24DD24D9
:1005300000E010E090E4A92E80E1782EBCEF8B2E35
:10054000B1E09B2E03C00F5F1F4F6E018BB18A2558
:100550008BB980910203833009F094C0BB2009F469
:1005600091C085B1872585B980911503882309F449
:1005700041C01092150380910E0390910F038C5D82
:10058000954090930F0380930E0380910E039091FA
:100590000F031816190624F45998439A429810C06C
:1005A00080910E0390910F0397FF03C09095819562
:1005B0009F4F90930F0380930E03599A429A43984A
:1005C00080910E0390910F038D5F914024F09092E3
:1005D0000F0380920E0380910E0390910F03959567
:1005E00087959093890080938800809102038D7F86
:1005F0008093020380911403882309F441C0109270
:10060000140380910C0390910D038C5D95409093A1
:100610000D0380930C0380910C0390910D03181629
:10062000190624F45898419A409810C080910C0300
:1006300090910D0397FF03C0909581959F4F9093E4
:100640000D0380930C03589A409A419880910C03B3
:1006500090910D038D5F914024F090920D03809254
:100660000C0380910C0390910D03959587959093C1
:100670008B0080938A00809102038E7F8093020317
:1006800000E010E086E02FDD803F910568F4E60190
:10069000219681E4C8168CE9D80648F023EBC03BCC
:1006A000D20710F45D9A03C05D98C0E0D0E087E007
:1006B0001ADD835F9340D0F081EDE81687E0F806FD
:1006C00024F40894E11CF11C1FC02D9A10928B0099
:1006D00010928A0080918A0090918B0090938900FB
:1006E00080938800EE24FF24BB240EC020E0E21695
:1006F00023E8F20624F00894E108F10805C02D98DB
:10070000EE24FF24BB24B39487E10137180708F4D3
:100710001ACF109202032C9810928B0010928A002C
:1007200080918A0090918B0090938900809388003B
:0A07300000E010E00ACFF894FFCFBC
:10073A0000000000000000000000010002000300A9
:10074A000400050006000700080009000A000B0063
:10075A000C000D000E000F00100011001200130013
:10076A001400150016001700180019001A001B00C3
:10077A001C001D001E001F00200021002200230073
:10078A002400250026002700280029002A002B0023
:10079A002C002D002E002F003000310032003300D3
:1007AA003400350036003700380039003A003B0083
:1007BA003C003D003E003F00400041004200430033
:1007CA004400450046004700480049004A004B00E3
:1007DA004C004D004E004F00500051005200530093
:1007EA005400550056005700580059005A005B0043
:1007FA005C005D005E005F006000610062006300F3
:10080A006400650066006700680069006A006B00A2
:10081A006C006D006E006F00700071007200730052
:10082A007400750076007700780079007A007B0002
:10083A007C007D007E007F008000810082008300B2
:10084A008400850086008700880089008A008B0062
:10085A008C008D008E008F00900091009200930012
:10086A009400950096009700980099009A009B00C2
:10087A009C009D009E009F00A000A100A200A30072
:10088A00A400A500A600A700A800A900AA00AB0022
:10089A00AC00AD00AE00AF00B000B100B200B300D2
:1008AA00B400B500B600B700B800B900BA00BB0082
:1008BA00BC00BD00BE00BF00C000C100C200C30032
:1008CA00C400C500C600C700C800C900CA00CB00E2
:1008DA00CC00CD00CE00CF00D000D100D200D30092
:1008EA00D400D500D600D700D800D900DA00DB0042
:1008FA00DC00DD00DE00DF00E000E100E200E300F2
:10090A00E400E500E600E700E800E900EA00EB00A1
:10091A00EC00ED00EE00EF00F000F100F200F30051
:10092A00F400F500F600F700F800F900FA00FB0001
:08093A00010101FFFFFFFF00B6
:00000001FF
