:100000000C942A000C94FB000C9445000C944500C1
:100010000C9445000C9445000C9445000C9445004C
:100020000C9445000C9445000C9445000C9445003C
:100030000C9445000C9445000C9445000C9445002C
:100040000C9445000C9445000C9445000C9445001C
:100050000C94450011241FBECFE5D4E0DEBFCDBF18
:1000600010E0A0E6B0E0EAEEF0E102C005900D92EB
:10007000AA36B107D9F710E0AAE6B0E001C01D9298
:10008000AD3CB107E1F70C9453010C940000CF9301
:10009000DF93CDB7DEB724970FB6F894DEBF0FBE5F
:1000A000CDBF89839A831B821C822B813C818981ED
:1000B0009A812817390730F48B819C8101968B83B4
:1000C0009C83F3CF24960FB6F894DEBF0FBECDBF4E
:1000D000DF91CF910895CF93DF93CDB7DEB722970D
:1000E0000FB6F894DEBF0FBECDBF80913000809573
:1000F00088778A838A81882349F08FEF9FE20E9464
:100100004700809130008095887789838091300006
:1001100099278095909588779070009709F0F6CF91
:1001200099818A81981709F01982898199272296E5
:100130000FB6F894DEBF0FBECDBFDF91CF9108950B
:10014000CF93DF93CDB7DEB780913A008FEF8093E6
:100150003A0090E080913B00892380933B0080919E
:1001600037008FEF8093370090E08091380089232B
:1001700080933800809137008F7B80933700809187
:1001800034008FEF8093340090E080913500892314
:1001900080933500809134008F7B80933400809170
:1001A000350080648093350080913100877880939A
:1001B0003100809132008867809332008091310055
:1001C0008068809331009FE780913200892380937B
:1001D0003200809131008B7F80933100809132001A
:1001E0008460809332001092550080E480935B001D
:1001F000DF91CF9108951F920F920FB60F921124A5
:100200002F933F934F935F936F937F938F939F931E
:10021000AF93BF93EF93FF93CF93DF93CDB7DEB749
:100220002DE630E04AE650E065EC70E08EE690E0C6
:100230000E94D102109272009091720080916A0027
:100240009817F0F48091730090917400DC01AB5822
:10025000BF4F809172009927FC01EB53FF4F8081C3
:100260008C93809173009091740001969093740028
:1002700080937300809172008F5F80937200DCCF57
:10028000DF91CF91FF91EF91BF91AF919F918F91AE
:100290007F916F915F914F913F912F910F900FBE82
:1002A0000F901F901895C7E4D4E0DEBFCDBFF8943F
:1002B0008FEF898388E0FE01329611928A95E9F7E3
:1002C00088E0DE011E96E0E6F0E001900D928A954E
:1002D000E1F788E08F8B82EA93EAA4EAB5EA8A879D
:1002E0009B87AC87BD87188E1092740010927300A4
:1002F0000E94A0000E9463080E9438050E946703C4
:100300007894CE01029644E0BC0181E30E94DA04B5
:1003100080E30E9415048E8385E30E9415048F8379
:100320000E946B00898389818830A9F5F894CE01F9
:100330000E96088D2F89AC016A857B858C859D85FD
:100340000E942B028FEF90E00E9447008CE20E94F7
:1003500015048E8B8E890E94B7078EE00E941504CB
:100360008E8B8E890E94B7078DE20E9415048E8BBA
:100370008E890E94B7078FEF8E8B60E08CE20E941F
:10038000ED0360E08EE00E94ED0360E08DE20E94EC
:10039000ED037894C5CF8981803109F0C1CFF894FD
:1003A000809173008F5F682F85E790E00E943C0882
:1003B0008091730090917400969587959695879596
:1003C000969587950E94B7078CE20E9415048E8B44
:1003D0008E890E94B7078EE00E9415048E8B8E894D
:1003E0000E94B7078DE20E9415048E8B8E890E94B1
:1003F000B7078FEF8E8B60E08CE20E94ED0360E028
:100400008EE00E94ED0360E08DE20E94ED03109209
:1004100074001092730010926C0010926B00809127
:100420006B0090916C008035910598F480916B0081
:1004300090916C00FC01EB58FF4F80E3808380912A
:100440006B0090916C00019690936C0080936B0010
:10045000E6CF789465CF0F93CF93DF93CDB7DEB718
:100460002C970FB6F894DEBF0FBECDBF69837A8399
:100470008B839C834D835E832F8308878F81893094
:1004800008F01F8243E063E080E30E9473048885E4
:1004900099270024880F991F001C880F991F001CA2
:1004A000892F902D817090700097A9F189819A8190
:1004B000AB81BC81072E75E1B695A7959795879579
:1004C0007A95D1F7702D898789819A81AB81BC811A
:1004D000CD01AA27BB27382F337089819A81AB8140
:1004E000BC81072E7DE0B695A795979587957A955F
:1004F000D1F7702D20EE8223832B88608A87898133
:100500009A81AB81BC81892F9A2FAB2FBB278B8718
:1005100089818C8714C089819A81AB81BC81689460
:1005200012F8B695A795979587951694D1F7898770
:1005300089818295880F807E8A871B861C86CE01E2
:10054000099644E0BC0181E30E949F0488858823CA
:100550003CF48F818064682F85E30E94ED0304C022
:100560006F8185E30E94ED034F816D817E8186E37B
:100570000E949F04809138008F7E8093380081E82C
:100580000E941905809138008061809338002C9674
:100590000FB6F894DEBF0FBECDBFDF91CF910F91A4
:1005A0000895CF93DF93CDB7DEB72E970FB6F894AB
:1005B000DEBF0FBECDBF89839A836B837C834D835F
:1005C0005E832F8338871A861B861C861D868CE2E5
:1005D0000E94150489878985837089878985813080
:1005E000F9F4EF81F88580EA8083CE010A9644E031
:1005F000BC0181E60E94DA0485E60E941504ED81C3
:10060000FE818083ED81FE8140816B817C8186E665
:100610000E94DA0440E061E08CE20E94730421C091
:1006200089858230F1F4EF81F88581EA8083CE01FB
:100630000A9644E0BC0181E70E94DA0485E70E9443
:100640001504ED81FE818083ED81FE8140816B8107
:100650007C8186E70E94DA0440E062E08CE20E943E
:100660007304E981FA818A859927AA27BB27582F25
:100670004427332722278B859927AA27BB27DC010C
:1006800099278827282B392B4A2B5B2B8C85992778
:10069000AA27BB27BA2FA92F982F8827282B392BB9
:1006A0004A2B5B2B8D859927AA27BB27822B932B5F
:1006B000A42BB52B80839183A283B3832E960FB690
:1006C000F894DEBF0FBECDBFDF91CF910895CF93D9
:1006D000DF93CDB7DEB724970FB6F894DEBF0FBE19
:1006E000CDBF809138008F7E8093380080EC0E94CF
:1006F00019058091380080618093380040E860EEF1
:100700008FE00E94730461E48AE20E94ED0360E9D5
:1007100089E20E94ED0362E088E20E94ED0363E05B
:100720008BE20E94ED0360E680E60E94ED0360E646
:1007300080E70E94ED0319821A821B821C8244E02A
:10074000BE016F5F7F4F80E00E949F0444E0BE01C6
:100750006F5F7F4F84E00E949F0444E0BE016F5FA3
:100760007F4F88E00E949F0444E0BE016F5F7F4F8F
:1007700080E10E949F0444E0BE016F5F7F4F84E1EF
:100780000E949F0444E0BE016F5F7F4F88E10E949A
:100790009F0444E0BE016F5F7F4F80E20E949F0490
:1007A00044E0BE016F5F7F4F84E20E949F0460E0DF
:1007B0008CE00E94ED0360E08DE00E94ED0340E0DC
:1007C00060EE8FE00E94730424960FB6F894DEBFAB
:1007D0000FBECDBFDF91CF910895CF93DF93CDB7FB
:1007E000DEB722970FB6F894DEBF0FBECDBF898368
:1007F0006A83809138008F7E8093380082E00E9467
:10080000190589810E9419058A810E941905809124
:10081000380080618093380022960FB6F894DEBFCE
:100820000FBECDBFDF91CF910895CF93DF93CDB7AA
:10083000DEB722970FB6F894DEBF0FBECDBF898317
:10084000809138008F7E8093380083E00E941905E4
:1008500089810E9419058FEF0E9419058A83809172
:1008600038008061809338008A81992722960FB6DC
:10087000F894DEBF0FBECDBFDF91CF910895CF9327
:10088000DF93CDB7DEB724970FB6F894DEBF0FBE67
:10089000CDBF898389EF99818923882319F01B8231
:1008A0001C8216C0809138008F7E80933800898129
:1008B00080690E9419058FEF0E9419058A83809133
:1008C00038008061809338008A8199278B839C83CC
:1008D0008B819C8124960FB6F894DEBF0FBECDBFEE
:1008E000DF91CF910895CF93DF93CDB7DEB72397F4
:1008F0000FB6F894DEBF0FBECDBF89836A834B83EA
:10090000809138008F7E8093380085E00E94190521
:1009100089810E9419058A810E9419058B810E9494
:1009200019058091380080618093380023960FB6B6
:10093000F894DEBF0FBECDBFDF91CF910895CF9366
:10094000DF93CDB7DEB725970FB6F894DEBF0FBEA5
:10095000CDBF89836A837B834C83809138008F7EEF
:100960008093380082E00E94190589810E94190550
:100970001D829D818C81981778F4DE011296ED918D
:10098000FC91119780813196ED93FC930E9419059B
:100990008D818F5F8D83EDCF809138008061809352
:1009A000380025960FB6F894DEBF0FBECDBFDF919D
:1009B000CF910895CF93DF93CDB7DEB725970FB6CC
:1009C000F894DEBF0FBECDBF89836A837B834C83DF
:1009D000809138008F7E8093380083E00E94190553
:1009E00089810E9419051D829D818C81981798F438
:1009F0008FEF0E941905282FDE0112968D919C9190
:100A00001197FC01208301968D939C9311978D8102
:100A10008F5F8D83E9CF80913800806180933800AB
:100A200025960FB6F894DEBF0FBECDBFDF91CF91F4
:100A30000895CF93DF93CDB7DEB721970FB6F89423
:100A4000DEBF0FBECDBF8983898180932F00809147
:100A50002E0088230CF0FBCF80912F009927219640
:100A60000FB6F894DEBF0FBECDBFDF91CF910895D2
:100A7000CF93DF93CDB7DEB780913700806B809343
:100A800037009FE58091380089238093380080915A
:100A9000380080618093380080E580932D00DF91DD
:100AA000CF910895CF93DF93CDB7DEB780912D001E
:100AB0008F7B80932D00DF91CF910895CF93DF93AB
:100AC000CDB7DEB780912D00806480932D00DF913B
:100AD000CF910895CF93DF93CDB7DEB721970FB6AF
:100AE000F894DEBF0FBECDBF89830E946206898164
:100AF00080933B0080913500826080933500809127
:100B000035008E7F80933500809135008260809320
:100B10003500809135008E7F809335009FE780916E
:100B200035008923809335009FE780913500892324
:100B3000809335009FE780913500892380933500AD
:100B40009FE7809135008923809335009FE780914E
:100B500035008923809335009FE7809135008923F4
:100B600080933500809135008068809335008091B6
:100B7000350080688093350021960FB6F894DEBF6B
:100B80000FBECDBFDF91CF910895CF93DF93CDB747
:100B9000DEB722970FB6F894DEBF0FBECDBF8983B4
:100BA0006A838A81882311F00E946206898180937A
:100BB0003B00809135008D7F80933500809135001A
:100BC0008E7F809335009FE7809135008923809345
:100BD00035009FE7809135008923809335009FE79A
:100BE000809135008923809335009FE780913500FF
:100BF0008923809335009FE7809135008923809376
:100C000035009FE7809135008923809335008091DE
:100C1000350080688093350080913500806880932E
:100C2000350022960FB6F894DEBF0FBECDBFDF9120
:100C3000CF910895CF93DF93CDB7DEB78091350084
:100C4000826080933500809135008160809335000B
:100C50009FE7809135008923809335009FE780913D
:100C600035008923809335009FE7809135008923E3
:100C7000809335009FE7809135008923809335006C
:100C80009FE7809135008923809335009FE780910D
:100C900035008923809335009FE7809135008923B3
:100CA0008093350080913500806880933500809175
:100CB000350080688093350080913B009927DF9153
:100CC000CF910895CF93DF93CDB7DEB710923A005E
:100CD000809135008D7F8093350080913500816053
:100CE000809335009FE780913500892380933500FC
:100CF0009FE7809135008923809335009FE780919D
:100D000035008923809335009FE780913500892342
:100D10008093350080913500806880933500809104
:100D2000390088230CF4FBCF8FEF80933A00809139
:100D300039009927DF91CF910895CF93DF93CDB7F5
:100D4000DEB710923B0060E088E30E94C5050E9478
:100D50006E0760E088E30E94C5050E946E0760E0B0
:100D600088E30E94C5050E946E0761E088E30E9447
:100D7000C50561E088E00E94C50561E081E00E9450
:100D8000C50561E086E00E94C50561E08CE00E9437
:100D9000C505DF91CF910895CF93DF93CDB7DEB72F
:100DA00023970FB6F894DEBF0FBECDBF89836A8349
:100DB0004B838A8181708A8389818F7089838A813C
:100DC000882319F089818064898389818068898377
:100DD00060E089810E94C5058B810E946A0560E000
:100DE00089810E94C50523960FB6F894DEBF0FBE19
:100DF000CDBFDF91CF910895CF93DF93CDB7DEB70D
:100E000025970FB6F894DEBF0FBECDBF89836A83E6
:100E10004B835C831D828A8181708A8389818F7074
:100E200089838D81282F33278B819C81F901E80FDD
:100E3000F91F80818132B8F08981803190F78D81EE
:100E4000282F33278B819C81F901E80FF91F4081FE
:100E50006A8189810E94CC068D818F5F8D83898113
:100E60008F5F8983DECF25960FB6F894DEBF0FBE65
:100E7000CDBFDF91CF910895CF93DF93CDB7DEB78C
:100E800025970FB6F894DEBF0FBECDBF89836A8366
:100E90007B831C828981817089831D828D81803151
:100EA000A0F48C81282F33278A819B81F901E80FD8
:100EB000F91F408169818D810E94CC068C818F5FF2
:100EC0008C838D818F5F8D83E9CF25960FB6F89443
:100ED000DEBF0FBECDBFDF91CF910895CF93DF93DB
:100EE000CDB7DEB722970FB6F894DEBF0FBECDBFE9
:100EF00080EB95E189839A8389819A81019789831F
:100F00009A832FEF8F3F920709F0F6CF22960FB604
:100F1000F894DEBF0FBECDBFDF91CF910895CF9380
:100F2000DF93CDB7DEB723970FB6F894DEBF0FBEC1
:100F3000CDBF89E089838981815089838F3F71F09A
:100F400081E69EE18A839B838A819B8101978A83C4
:100F50009B832FEF8F3F920771F3F6CF23960FB647
:100F6000F894DEBF0FBECDBFDF91CF910895CF9330
:100F7000DF93CDB7DEB721970FB6F894DEBF0FBE73
:100F8000CDBF898380912B0099279695879592955F
:100F900082958F7089279F70892781709070009744
:100FA00009F4F0CF898180932C0021960FB6F89434
:100FB000DEBF0FBECDBFDF91CF910895CF93DF93FA
:100FC000CDB7DEB780912B0088230CF0FBCF80914A
:100FD0002C009927DF91CF910895CF93DF93CDB760
:100FE000DEB722970FB6F894DEBF0FBECDBF898360
:100FF0009A83E981FA818081882359F0E981FA8115
:1010000080810E94B70789819A81019689839A839A
:10101000F0CF8AE00E94B70781E090E022960FB6F9
:10102000F894DEBF0FBECDBFDF91CF910895CF936F
:10103000DF93CDB7DEB722970FB6F894DEBF0FBEB1
:10104000CDBF89839A83E981FA818081882359F011
:10105000E981FA8180810E94B70789819A8101968E
:1010600089839A83F0CF22960FB6F894DEBF0FBE25
:10107000CDBFDF91CF910895CF93DF93CDB7DEB78A
:1010800023970FB6F894DEBF0FBECDBF89839A8336
:101090006B838B81882371F0E981FA8180810E94C2
:1010A000B70789819A81019689839A838B818150C0
:1010B0008B83EFCF23960FB6F894DEBF0FBECDBF64
:1010C000DF91CF910895CF93DF93CDB7DEB788E15D
:1010D00080932A008FE2809329001092400086E8D6
:0A10E00080934000DF91CF91089546
:0A10EA002F48656C6C6F2120000098
:00000001FF
