:1000000019C033C032C031C030C22FC02EC02DC085
:100010002CC02BC088C029C028C027C026C025C03E
:1000200024C023C022C021C020C01FC01EC01DC0CC
:100030001CC01BC011241FBECFEFD2E0DEBFCDBF5E
:1000400012E0A0E0B1E0E2E4F7E002C005900D921A
:10005000A230B107D9F712E0A2E0B2E001C01D92D0
:10006000AD31B107E1F72FD26AC3CACF8EE084B9B0
:1000700088E085B913B885EE8AB981E68BB919B8DD
:1000800080E387B988B916B8089580E680937C002C
:1000900085E880937A0010927B0088EC80937E0044
:1000A000089590917C00982B90937C0080917A0029
:1000B000806480937A0080917A0086FDFCCF8091E5
:1000C0007C00807F80937C008091790090E008958F
:1000D00082EC8093810080E280936F001092850013
:1000E0001092840008958CE0809369000895E8E6FA
:1000F000F0E0808182608083ECE6F0E080818760C0
:100100008083089581EA84BD81E085BD18BC88B5EF
:1001100087BD089581E88093B00081E08093B100AD
:100120001092B30008951F920F920FB60F921124F0
:100130002F933F934F938F939F9380910101882337
:1001400071F01092010182E8809381001092850085
:1001500010928400109287001092860046C041E001
:100160004093010182EC80938100109285001092EF
:10017000840085B194E0892785B9809186009091AB
:100180008700909317028093160280911C028F5F64
:1001900080931C0281508330D0F020911402309162
:1001A000150280911202909113022817390719F451
:1001B000409300010AC08091120290911302909323
:1001C0001502809314021092000110921C0280917B
:1001D00012029091130281569A4E20F0109213024F
:1001E0001092120281E080931B029F918F914F9198
:1001F0003F912F910F900FBE0F901F901895982F41
:1002000080911802882309F46CC0933009F44AC025
:10021000943038F4913009F453C0923009F0DAC0C8
:1002200033C0953031F0953090F0963009F0D2C05F
:100230001CC084B58F7084BD8091B0008F73809393
:10024000B000589A88B1806388B900009CC084B51A
:100250008F7084BD8091B0008F738093B000589AE6
:1002600088B1806388B900009DC084B58F7084BD5B
:100270008091B0008F738093B000589A88B18063EA
:1002800088B9000058984FC084B58F7084BD8091A4
:10029000B0008F738093B000589A88B1806388B99A
:1002A000000040C084B58F7084BD8091B0008F7312
:1002B0008093B000589A88B1806388B9000046C026
:1002C00084B58F7084BD8091B0008F738093B0002F
:1002D000589A88B1806388B90000449884B58068D2
:1002E00064C0933009F451C0943038F4913009F46B
:1002F0005EC0923009F06EC039C0953031F0953053
:10030000C0F0963009F066C023C084B58F7084BDFC
:100310008091B0008F738093B000589A88B1806349
:1003200088B9000045988091B00080688093B00043
:10033000089584B58F7084BD8091B0008F738093D1
:10034000B000589A88B1806388B900004598C6CF3C
:1003500084B58F7084BD8091B0008F738093B0009E
:10036000589A88B1806388B90000B7CF84B58F7080
:1003700084BD8091B0008F738093B000589A88B18B
:10038000806388B9000044980EC084B58F7084BD26
:100390008091B0008F738093B000589A88B18063C9
:1003A00088B90000589884B5806284BD089584B5EA
:1003B0008F7084BD8091B0008F738093B000589A85
:1003C00088B1806388B9000058988091B000806837
:1003D0008093B00008950F931F93CF93DF931092F3
:1003E0001C0210920001809168008C7F809368004D
:1003F00080EE8093B3008091B30088BD88B587BD3F
:100400008091680082608093680000EEC0E2DEE4C4
:1004100010E080911202909113020597F0F4812F61
:10042000EEDECE010197F1F71F5F183091F708500B
:10043000003159F48FEF8093B3008091B30088BDF1
:1004400088B587BD20E030E00AC00093B3008091FA
:10045000B30088BD88B587BDDBCF21E030E0C9019E
:10046000DF91CF911F910F9108951F920F920FB6B8
:100470000F9211242F933F934F935F936F937F932A
:100480008F939F93AF93BF93EF93FF93809112024B
:10049000909113020196909313028093120286B1F9
:1004A0008770ADDEFF91EF91BF91AF919F918F91DA
:1004B0007F916F915F914F913F912F910F900FBE60
:1004C0000F901F9018957F928F929F92AF92BF923C
:1004D000CF92DF92EF92FF920F931F93CF93DF9310
:1004E000F894C4DD299A88E893E128EC30E0F9011A
:1004F0003197F1F70197D9F7299888E893E128EC2B
:1005000030E0F9013197F1F70197D9F7299A88E896
:1005100093E128EC30E0F9013197F1F70197D9F731
:1005200029988091680082608093680080916C00B7
:10053000876080936C0081EA84BD91E095BD18BC12
:1005400088B587BD81E88093B0009093B100109288
:10055000B30082EC8093810080E280936F00109260
:1005600085001092840080E680937C0085E880936B
:100570007A0010927B0088EC80937E007894CC24E3
:10058000DD249924EE24FF2400E010E05FEFA52E87
:10059000B12C7724739488248A9403C00894C11CD6
:1005A000D11C80911B02882309F472C0992009F4A0
:1005B0006FC010921B0220911602309117022C5D21
:1005C000354037FD20C0C9019595879590931A0253
:1005D000809319028F3F910529F024F0B0921A02FE
:1005E000A09219028091190290911A02F501E81B5C
:1005F000F90BEE5FFE4F80818093190210921A0270
:100600001092180222C088279927821B930B959578
:10061000879590931A02809319028F3F910529F0D4
:1006200024F0B0921A02A0921902809119029091BE
:100630001A02F501E81BF90BEE5FFE4F80818093F3
:10064000190210921A0270921802809100018823F8
:10065000A1F08091190290911A028F3F91056CF4DC
:1006600080E8B9DE892BE1F3809119028093B30011
:100670008091B30088BD88B587BD809119028093B1
:10068000B3008091B30088BD88B587BDCC24DD243C
:1006900083E007DDEC0186E004DD880F991F880FF9
:1006A000991F815D924088F082E00B3818071CF496
:1006B0000F5F1F4F16C0299A8092B3008091B3003C
:1006C00088BD88B587BD99240AC021EB003E12077A
:1006D0001CF00150104005C029989924939400E023
:1006E00010E0CC0FDD1FCC0FDD1FCA56D14058F4EF
:1006F00021EDE21627E0F20624F40894E11CF11C37
:100700000EC05A9A0AC080E3E81688EFF80624F073
:100710000894E108F10803C05A98EE24FF2421EE62
:10072000C2162EE2D20608F439CF8092B30080912F
:10073000B30088BD88B587BDCC24DD2432CFF894C2
:02074000FFCFE9
:100742000101010203040506060707080809090A50
:100752000A0B0C0D0E0F101112131415161718197F
:100762001A1B1C1D1E1F202122232425262728296F
:100772002A2B2C2D2E2F303132333435363738395F
:100782003A3B3C3D3E3F404142434445464748494F
:100792004A4B4C4D4E4F505152535455565758593F
:1007A2005A5B5C5D5E5F606162636465666768692F
:1007B2006A6B6C6D6E6F707172737475767778791F
:1007C2007A7B7C7D7E7F808182838485868788890F
:1007D2008A8B8C8D8E8F90919293949596979899FF
:1007E2009A9B9C9D9E9FA0A1A2A3A4A5A6A7A8A9EF
:1007F200AAABACADAEAFB0B1B2B3B4B5B6B7B8B9DF
:10080200BABBBCBDBEBFC0C1C2C3C4C5C6C7C8C9CE
:10081200CACBCCCDCECFD0D1D2D3D4D5D6D7D8D9BE
:10082200DADBDCDDDEDFE0E1E2E3E4E5E6E7E8E9AE
:10083200EAEBECEDEFF1F3F5F7F9FBFDFFFFFFFF5C
:02084200FFFFB6
:00000001FF
