:1000000019C033C074C131C02DC32FC02EC02DC044
:100010002CC02BC02AC029C028C0D6C026C025C0ED
:1000200024C023C022C021C020C01FC01EC01DC0CC
:100030001CC01BC011241FBECFEFD2E0DEBFCDBF5E
:1000400011E0A0E0B1E0E4ECFCE002C005900D920C
:10005000A231B107D9F711E0A2E1B1E001C01D92D0
:10006000AA34B107E1F72CD32BC6CACF8EE084B9EE
:1000700088E085B913B885EE8AB981E68BB919B8DD
:1000800080E387B988B916B80895FC0116861586ED
:10009000108A17868DEC9CECACECBDE381839283D7
:1000A000A383B4838AE097EDA3E2BCE385839683C0
:1000B000A783B08781879287A387B48780E58083F1
:1000C00008958F929F92AF92BF92CF92DF92EF925C
:1000D000FF920F931F935B01FB01C080DD24C81AC0
:1000E000D90A85849684B601882777FD8095982F54
:1000F000F3D3209100013091010140910201509110
:10010000030176D47B018C01B401882777FD8095AB
:10011000982FE2D32091040130910501409106010E
:100120005091070165D49B01AC01C801B7013CD3D4
:100130007B018C01F50167857089882777FD8095A3
:10014000982FCAD3209108013091090140910A01EA
:1001500050910B014DD49B01AC01C801B70125D3CF
:1001600088D3F501908A8786D686C586CB011F91F4
:100170000F91FF90EF90DF90CF90BF90AF909F9046
:100180008F9008958CE0809369000895E8E6F0E090
:10019000808182608083ECE6F0E0808187608083EC
:1001A000089581EA84BD81E085BD80E488BD88B57D
:1001B00087BD089581E88093B00081E08093B1000D
:1001C00080E48093B30008951F920F920FB60F92B0
:1001D00011240F931F932F933F934F935F936F932C
:1001E0007F938F939F93AF93BF93EF93FF9385B1CB
:1001F00092E0892785B900913C0110913D018091E1
:10020000370190913801609144017091450159DFA7
:10021000080F191F10933D0100933C0180913C0190
:1002200090913D018F3F910539F034F08FEF90E0D0
:1002300090933D0180933C0180913C0190913D0160
:1002400097FF04C010923D0110923C0180913C0147
:1002500090913D0180958093B3008091B30088BD5B
:1002600088B587BD10923801109237018091430103
:100270008F5F8093430181508930D8F02091340101
:10028000309135018091320190913301281739075F
:1002900021F481E0809336010AC08091320190916F
:1002A00033019093350180933401109236011092FE
:1002B0004301809132019091330181569A4E20F092
:1002C0001092330110923201FF91EF91BF91AF91E3
:1002D0009F918F917F916F915F914F913F912F915E
:1002E0001F910F910F900FBE0F901F9018951F92A6
:1002F0000F920FB60F9211248F939F938091370125
:1003000090913801019690933801809337019F9125
:100310008F910F900FBE0F901F901895982F80917E
:100320003901882309F496C0933009F466C09430EB
:1003300038F4913009F476C0923009F02EC148C0EB
:10034000953031F09530C8F0963009F026C12AC0BA
:1003500084B58F7084BD8091B0008F738093B0009E
:10036000589A88B1806388B900000000000000003E
:100370000000000000000000DBC084B58F7084BD69
:100380008091B0008F738093B000589A88B18063D9
:1003900088B900000000000000000000000000001C
:1003A0000000DCC084B58F7084BD8091B0008F7375
:1003B0008093B000589A88B1806388B9000000002B
:1003C00000000000000000000000000058986BC012
:1003D00084B58F7084BD8091B0008F738093B0001E
:1003E000589A88B1806388B90000000000000000BE
:1003F000000000000000000055C084B58F7084BD6F
:100400008091B0008F738093B000589A88B1806358
:1004100088B900000000000000000000000000009B
:1004200000005BC084B58F7084BD8091B0008F7375
:100430008093B000589A88B1806388B900000000AA
:10044000000000000000000000000000449884B597
:10045000806887C0933009F46DC0943038F49130CF
:1004600009F481C0923009F098C04EC0953031F047
:100470009530F8F0963009F090C031C084B58F7097
:1004800084BD8091B0008F738093B000589A88B17A
:10049000806388B900000000000000000000000038
:1004A0000000000045988091B00080688093B00003
:1004B000089584B58F7084BD8091B0008F73809350
:1004C000B000589A88B1806388B90000000000002D
:1004D000000000000000000000004598B8CF84B57F
:1004E0008F7084BD8091B0008F738093B000589A54
:1004F00088B1806388B9000000000000000000009F
:10050000000000000000A2CF84B58F7084BD8091F0
:10051000B0008F738093B000589A88B1806388B917
:1005200000000000000000000000000000000000CB
:10053000449815C084B58F7084BD8091B0008F73CE
:100540008093B000589A88B1806388B90000000099
:10055000000000000000000000000000589884B572
:10056000806284BD089584B58F7084BD8091B00091
:100570008F738093B000589A88B1806388B9000067
:10058000000000000000000000000000000058987B
:100590008091B00080688093B00008950F931F93FE
:1005A000CF93DF931092430110923601809168003F
:1005B0008C7F809368001092810080916F008E7F05
:1005C00080936F00E99880EE8093B3008091B30030
:1005D00088BD88B587BD809168008260809368007F
:1005E00000EEC0E2DEE410E0809132019091330130
:1005F0000597F0F4812F92DECE010197F1F71F5F8E
:10060000183091F70850003159F48FEF8093B30000
:100610008091B30088BD88B587BD20E030E01CC064
:100620000093B3008091B30088BD88B587BDDBCF50
:10063000109238011092370181E0809381008091FF
:100640006F00816080936F0010928500109284008B
:1006500082E08DBB21E030E0C901DF91CF911F9195
:100660000F9108951F920F920FB60F9211242F939E
:100670003F934F935F936F937F938F939F93AF932A
:10068000BF93EF93FF9380913201909133010196D4
:10069000909333018093320186B187703FDEFF91E2
:1006A000EF91BF91AF919F918F917F916F915F91EA
:1006B0004F913F912F910F900FBE0F901F90189563
:1006C000CF93DF9381E190E0F6D1FC019093450157
:1006D0008093440116861586108A17868DEC9CEC53
:1006E000ACECBDE381839283A383B4838AE097ED6E
:1006F000A3E2BCE385839683A783B0878187928733
:10070000A387B48780E58083B1DC80916800826034
:100710008093680080916C00876080936C0085B145
:1007200094E0892785B988E893E128EC30E0F90165
:100730003197F1F70197D9F785B194E0892785B909
:10074000789481EA84BD21E025BD90E498BD88B508
:1007500087BD81E88093B0002093B1009093B300EF
:100760008CE080936900C8ECD0E007C088E893E192
:10077000FE013197F1F70197D9F780E80FDF892B58
:10078000A9F3C8ECD0E0809136018823E1F307C0DB
:1007900088E893E1FE013197F1F70197D9F780E8F6
:1007A000FDDE892B81F7F4CF5058BB27AA270ED046
:1007B000E5C0D6D030F0DBD020F031F49F3F11F40B
:1007C0001EF4CBC00EF4E095E7FBC1C0E92FE7D0E3
:1007D00080F3BA17620773078407950718F071F45E
:1007E0009EF5FFC00EF4E0950B2EBA2FA02D0B0145
:1007F000B90190010C01CA01A0011124FF27591B66
:1008000099F0593F50F4503E68F11A16F040A22F6B
:10081000232F342F4427585FF3CF469537952795DC
:10082000A795F0405395C9F77EF41F16BA0B620BDB
:10083000730B840BBAF09150A1F0FF0FBB1F661F22
:10084000771F881FC2F70EC0BA0F621F731F841F65
:1008500048F4879577956795B795F7959E3F08F08B
:10086000B3CF9395880F08F09927EE0F979587954A
:10087000089504D06894B111B5C0089598D088F057
:100880009F5790F0B92F9927B751A0F0D1F0660F7C
:10089000771F881F991F1AF0BA95C9F712C0B13097
:1008A00081F09FD0B1E008959CC0672F782F8827F2
:1008B000B85F39F0B93FCCF3869577956795B395D6
:1008C000D9F73EF490958095709561957F4F8F4F45
:1008D0009F4F0895E89409C097FB3EF4909580954A
:1008E000709561957F4F8F4F9F4F9923A9F0F92FF6
:1008F00096E9BB279395F695879577956795B79574
:10090000F111F8CFFAF4BB0F11F460FF1BC06F5F59
:100910007F4F8F4F9F4F16C0882311F096E911C06B
:10092000772321F09EE8872F762F05C0662371F08C
:1009300096E8862F70E060E02AF09A95660F771FA0
:10094000881FDAF7880F9695879597F9089597F994
:100950009F6780E870E060E008959FEF80EC089565
:1009600000240A941616170618060906089500248E
:100970000A9412161306140605060895092E039408
:10098000000C11F4882352F0BB0F40F4BF2B11F47C
:1009900060FF04C06F5F7F4F8F4F9F4F089557FDDB
:1009A0009058440F551F59F05F3F71F04795880FDD
:1009B00097FB991F61F09F3F79F087950895121674
:1009C00013061406551FF2CF4695F1DF08C0161620
:1009D00017061806991FF1CF8695710561050894D1
:1009E0000895E894BB2766277727CB0197F90895E8
:1009F0000BD0C4CFB5DF28F0BADF18F0952309F08B
:100A0000A6CFABCF1124EECFCADFA0F3959FD1F3D1
:100A1000950F50E0551F629FF001729FBB27F00DAC
:100A2000B11D639FAA27F00DB11DAA1F649F662701
:100A3000B00DA11D661F829F2227B00DA11D621F50
:100A4000739FB00DA11D621F839FA00D611D221F0A
:100A5000749F3327A00D611D231F849F600D211DEE
:100A6000822F762F6A2F11249F5750408AF0E1F091
:100A700088234AF0EE0FFF1FBB1F661F771F881FDA
:100A800091505040A9F79E3F510570F060CFAACF1A
:100A90005F3FECF3983EDCF3869577956795B795C5
:100AA000F795E7959F5FC1F7FE2B880F911D9695EF
:100AB000879597F90895CF93DF93BC018230910514
:100AC00010F462E070E0A0914801B0914901ED019D
:100AD000E0E0F0E040E050E021C088819981861795
:100AE000970769F48A819B81309719F093838283F9
:100AF00004C09093490180934801FE0134C06817F7
:100B0000790738F44115510519F08417950708F451
:100B1000AC01FE018A819B819C01E9012097E9F6E5
:100B200041155105A9F1CA01861B970B049708F4DA
:100B3000BA01E0E0F0E02AC08D919C9111978417F2
:100B40009507F9F46417750781F412968D919C91BD
:100B50001397309719F09383828304C090934901CF
:100B600080934801FD0132964FC0CA01861B970B46
:100B7000FD01E80FF91F6193719302978D939C9388
:100B800043C0FD01828193819C01D9011097A1F698
:100B90008091460190914701892B41F480910E018B
:100BA00090910F019093470180934601409110016D
:100BB000509111014115510541F44DB75EB7809137
:100BC0000C0190910D01481B590B20914601309169
:100BD000470124173507B0F4CA01821B930B86170F
:100BE000970780F0AB014E5F5F4F8417950750F079
:100BF000420F531F5093470140934601F9016193FF
:100C0000719302C0E0E0F0E0CF01DF91CF91089551
:100C1000CF93DF93009709F450C0EC0122971B8219
:100C20001A82A0914801B0914901109709F140E062
:100C300050E0AC17BD0708F1BB83AA83FE012191E8
:100C40003191E20FF31FAE17BF0779F48D919C919C
:100C50001197280F391F2E5F3F4F39832883129633
:100C60008D919C9113979B838A834115510571F453
:100C7000D0934901C093480120C012968D919C9158
:100C80001397AD01009711F0DC01D3CFFA01D383A4
:100C9000C28321913191E20FF31FCE17DF0769F470
:100CA00088819981280F391F2E5F3F4FFA013183C8
:100CB00020838A819B8193838283DF91CF910895E2
:040CC000F894FFCFD6
:100CC4003333333FCDCCCC3E6F12833B20004A01FB
:020CD40000001E
:00000001FF
