:1000000019C033C032C031C068C22FC02EC02DC04D
:100010002CC02BC065C029C028C027C026C025C061
:1000200024C023C022C021C020C01FC01EC01DC0CC
:100030001CC01BC011241FBECFEFD2E0DEBFCDBF5E
:1000400013E0A0E0B1E0E0EAF6E002C005900D9216
:10005000A230B107D9F713E0A2E0B3E001C01D92CE
:10006000AD32B107E1F767D219C3CACF8EE084B9C8
:1000700088E085B913B885EE8AB981E68BB919B8DD
:1000800080E387B988B916B8089582EC809381001F
:1000900080E280936F001092850010928400089592
:1000A0008CE0809369000895E8E6F0E0808182604A
:1000B0008083ECE6F0E0808187608083089581EAA8
:1000C00084BD81E085BD18BC88B587BD089581E8F1
:1000D0008093B00081E08093B1001092B300089546
:1000E0001F920F920FB60F9211242F933F934F93AD
:1000F0008F939F9380910101882371F010920101E9
:1001000082E8809381001092850010928400109202
:1001100087001092860045C041E04093010182ECC7
:1001200080938100109285001092840085B194E044
:10013000892785B98091860090E09093270380936A
:10014000260380912C038F5F80932C038150833092
:10015000D0F02091240330912503809122039091C7
:1001600023032817390719F4409300010AC080912E
:1001700022039091230390932503809324031092EC
:10018000000110922C038091220390912303815649
:100190009A4E20F0109223031092220381E0809364
:1001A0002B039F918F914F913F912F910F900FBEF5
:1001B0000F901F901895982F80912803882309F499
:1001C00096C0933009F466C0943038F4913009F445
:1001D00076C0923009F02EC148C0953031F095308C
:1001E000C8F0963009F026C12AC084B58F7084BD4E
:1001F0008091B0008F738093B000589A88B180636B
:1002000088B90000000000000000000000000000AD
:100210000000DBC084B58F7084BD8091B0008F7307
:100220008093B000589A88B1806388B900000000BC
:10023000000000000000000000000000DCC084B5E9
:100240008F7084BD8091B0008F738093B000589AF6
:1002500088B1806388B90000000000000000000041
:1002600000000000000058986BC084B58F7084BDFA
:100270008091B0008F738093B000589A88B18063EA
:1002800088B900000000000000000000000000002D
:10029000000055C084B58F7084BD8091B0008F730D
:1002A0008093B000589A88B1806388B9000000003C
:1002B0000000000000000000000000005BC084B5EA
:1002C0008F7084BD8091B0008F738093B000589A76
:1002D00088B1806388B900000000000000000000C1
:1002E000000000000000449884B5806887C0933007
:1002F00009F46DC0943038F4913009F481C0923023
:1003000009F098C04EC0953031F09530F8F0963035
:1003100009F090C031C084B58F7084BD8091B00069
:100320008F738093B000589A88B1806388B90000B9
:1003300000000000000000000000000000004598E0
:100340008091B00080688093B000089584B58F706C
:1003500084BD8091B0008F738093B000589A88B1AB
:10036000806388B900000000000000000000000069
:10037000000000004598B8CF84B58F7084BD80918F
:10038000B0008F738093B000589A88B1806388B9A9
:10039000000000000000000000000000000000005D
:1003A000A2CF84B58F7084BD8091B0008F7380938D
:1003B000B000589A88B1806388B90000000000003E
:1003C00000000000000000000000449815C084B543
:1003D0008F7084BD8091B0008F738093B000589A65
:1003E00088B1806388B900000000000000000000B0
:1003F000000000000000589884B5806284BD089514
:1004000084B58F7084BD8091B0008F738093B000ED
:10041000589A88B1806388B900000000000000008D
:10042000000000000000000058988091B000806833
:100430008093B00008950F931F93CF93DF93109292
:100440002C0310920001809168008C7F80936800DB
:100450001092810080916F008E7F80936F00E998E9
:1004600080EE8093B3008091B30088BD88B587BDCE
:100470008091680082608093680000EEC0E2DEE454
:1004800010E080912203909123030597F0F4812FCF
:1004900092DECE010197F1F71F5F183091F70850F7
:1004A000003159F48FEF8093B3008091B30088BD81
:1004B00088B587BD20E030E00AC00093B30080918A
:1004C000B30088BD88B587BDDBCF21E030E0C9012E
:1004D000DF91CF911F910F9108951F920F920FB648
:1004E0000F9211242F933F934F935F936F937F93BA
:1004F0008F939F93AF93BF93EF93FF9380912203CA
:10050000909123030196909323038093220386B155
:10051000877051DEFF91EF91BF91AF919F918F91C5
:100520007F916F915F914F913F912F910F900FBEEF
:100530000F901F9018951F93CF93DF93F89496DD3B
:1005400085B192E0892785B988E893E128EC30E00D
:10055000F9013197F1F70197D9F785B192E0892731
:1005600085B98091680082608093680080916C00FA
:10057000876080936C0081EA84BD91E095BD18BCD2
:1005800088B587BD81E88093B0009093B100109248
:10059000B30082EC8093810080E280936F00109220
:1005A000850010928400789411E0CFEFD0E0809124
:1005B0002B038823E1F310922B0320912603309123
:1005C00027032C5D354030932A032093290337FD00
:1005D00021C0299A10922803C90195958795909377
:1005E0002A03809329038F3F910529F024F0D093AB
:1005F0002A03C0932903E0912903F0912A03EE0F07
:10060000FF1FEE5FFE4F8081918190932A038093BC
:10061000290323C0299888279927821B930B959536
:10062000879590932A03809329038F3F910529F0A2
:1006300024F0D0932A03C0932903E0912903F09179
:100640002A03EE0FFF1FEE5FFE4F80819181909392
:100650002A038093290310932803809100018823A3
:1006600099F08091290390912A0302976CF080E819
:10067000E2DE892BE1F3809129038093B30080911E
:10068000B30088BD88B587BD809129038093B300EE
:100690008091B30088BD88B587BD89CFF894FFCF1E
:1006A0000101000000000000000000000100020045
:1006B00003000400050006000700080009000A0006
:1006C0000B000C000D000E000F00100011001200B6
:1006D00013001400150016001700180019001A0066
:1006E0001B001C001D001E001F0020002100220016
:1006F00023002400250026002700280029002A00C6
:100700002B002C002D002E002F0030003100320075
:1007100033003400350036003700380039003A0025
:100720003B003C003D003E003F00400041004200D5
:1007300043004400450046004700480049004A0085
:100740004B004C004D004E004F0050005100520035
:1007500053005400550056005700580059005A00E5
:100760005B005C005D005E005F0060006100620095
:1007700063006400650066006700680069006A0045
:100780006B006C006D006E006F00700071007200F5
:1007900073007400750076007700780079007A00A5
:1007A0007B007C007D007E007F0080008100820055
:1007B00083008400850086008700880089008A0005
:1007C0008B008C008D008E008F00900091009200B5
:1007D00093009400950096009700980099009A0065
:1007E0009B009C009D009E009F00A000A100A20015
:1007F000A300A400A500A600A700A800A900AA00C5
:10080000AB00AC00AD00AE00AF00B000B100B20074
:10081000B300B400B500B600B700B800B900BA0024
:10082000BB00BC00BD00BE00BF00C000C100C200D4
:10083000C300C400C500C600C700C800C900CA0084
:10084000CB00CC00CD00CE00CF00D000D100D20034
:10085000D300D400D500D600D700D800D900DA00E4
:10086000DB00DC00DD00DE00DF00E000E100E20094
:10087000E300E400E500E600E700E800E900EA0044
:10088000EB00EC00ED00EE00EF00F000F100F200F4
:10089000F300F400F500F600F700F800F900FA00A4
:0208A000FB005B
:00000001FF
