:1000000019C033C032C031C040C22FC02EC02DC075
:100010002CC02BC088C029C028C027C026C025C03E
:1000200024C023C022C021C020C01FC01EC01DC0CC
:100030001CC01BC011241FBECFEFD2E0DEBFCDBF5E
:1000400012E0A0E0B1E0E4EDF7E002C005900D920F
:10005000A230B107D9F712E0A2E0B2E001C01D92D0
:10006000AD31B107E1F73FD2B3C3CACF8EE084B957
:1000700088E085B913B885EE8AB981E68BB919B8DD
:1000800080E387B988B916B8089580E680937C002C
:1000900085E880937A0010927B0088EC80937E0044
:1000A000089590917C00982B90937C0080917A0029
:1000B000806480937A0080917A0086FDFCCF8091E5
:1000C0007C00807F80937C008091790090E008958F
:1000D00082EC8093810080E280936F001092850013
:1000E0001092840008958CE0809369000895E8E6FA
:1000F000F0E0808182608083ECE6F0E080818760C0
:100100008083089581EA84BD81E085BD18BC88B5EF
:1001100087BD089581E88093B00081E08093B100AD
:100120001092B30008951F920F920FB60F921124F0
:100130002F933F934F938F939F9380910101882337
:1001400071F01092010182E8809381001092850085
:100150001092840010928700109286003BC041E00C
:100160004093010182EC80938100109285001092EF
:10017000840085B194E0892785B9809186009091AB
:100180008700909317028093160280911C028F5F64
:1001900080931C0281508330D0F020911402309162
:1001A000150280911202909113022817390719F451
:1001B000409300010AC08091120290911302909323
:1001C0001502809314021092000110921C0281E02B
:1001D00080931B029F918F914F913F912F910F9090
:1001E0000FBE0F901F901895982F809118028823AA
:1001F00009F46CC0933009F44AC0943038F491305B
:1002000009F453C0923009F0DAC033C0953031F0B0
:10021000953090F0963009F0D2C01CC084B58F7034
:1002200084BD8091B0008F738093B000589A88B1DC
:10023000806388B900009CC084B58F7084BD8091B4
:10024000B0008F738093B000589A88B1806388B9EA
:1002500000009DC084B58F7084BD8091B0008F7305
:100260008093B000589A88B1806388B9000058988C
:100270004FC084B58F7084BD8091B0008F73809320
:10028000B000589A88B1806388B9000040C084B536
:100290008F7084BD8091B0008F738093B000589AA6
:1002A00088B1806388B9000046C084B58F7084BD72
:1002B0008091B0008F738093B000589A88B18063AA
:1002C00088B90000449884B5806864C0933009F40C
:1002D00051C0943038F4913009F45EC0923009F086
:1002E0006EC039C0953031F09530C0F0963009F0CD
:1002F00066C023C084B58F7084BD8091B0008F73B9
:100300008093B000589A88B1806388B900004598FE
:100310008091B00080688093B000089584B58F709C
:1003200084BD8091B0008F738093B000589A88B1DB
:10033000806388B900004598C6CF84B58F7084BDAE
:100340008091B0008F738093B000589A88B1806319
:1003500088B90000B7CF84B58F7084BD8091B0009C
:100360008F738093B000589A88B1806388B9000079
:1003700044980EC084B58F7084BD8091B0008F7397
:100380008093B000589A88B1806388B9000058986B
:1003900084B5806284BD089584B58F7084BD8091DA
:1003A000B0008F738093B000589A88B1806388B989
:1003B000000058988091B00080688093B000089544
:1003C0000F931F93CF93DF93109215021092140294
:1003D000809114029091150290931302809312025F
:1003E00010921C0210920001809168008C7F809313
:1003F000680084B58F7084BD8091B0008F73809346
:10040000B000589A88B1806388B980EE8093B300B9
:100410008091B30088BD88B587BD809168008260F7
:100420008093680000EEC0E2DEE410E080911202EA
:1004300090911302059708F5812FD6DECE01019722
:10044000F1F71F5F183091F70850003159F48FEF22
:100450008093B3008091B30088BD88B587BD20E04C
:1004600030E00DC00093B3008091B30088BD88B523
:1004700087BD8BB180588BB9D8CF21E030E0C9015E
:10048000DF91CF911F910F9108951F920F920FB698
:100490000F9211242F933F934F935F936F937F930A
:1004A0008F939F93AF93BF93EF93FF93809112022B
:1004B000909113020196909313028093120286B1D9
:1004C000877092DEFF91EF91BF91AF919F918F91D5
:1004D0007F916F915F914F913F912F910F900FBE40
:1004E0000F901F9018955F926F927F928F929F92BC
:1004F000AF92BF92CF92DF92EF92FF920F931F9332
:10050000CF93DF93F894B2DD299A88E893E128EC41
:1005100030E0F9013197F1F70197D9F729988BB1BC
:1005200080588BB988E893E128EC30E0F9013197E5
:10053000F1F70197D9F7299A8BB180588BB988E8E0
:1005400093E128EC30E0F9013197F1F70197D9F701
:100550008BB180588BB92998809168008260809314
:10056000680080916C00876080936C0081EA84BD94
:1005700091E095BD18BC88B587BD81E88093B00037
:100580009093B1001092B30082EC8093810080E2DE
:1005900080936F00109285001092840080E6809313
:1005A0007C0085E880937A0010927B0088EC809331
:1005B0007E007894EE24FF249924CC24DD2400E0EE
:1005C00010E088248A947AE1572E62E0762E5FEF5D
:1005D000A52EB12C662463948BB180588BB9809181
:1005E0001B02882309F48DC0992009F48AC0109257
:1005F0001B0220911602309117022C5D354037FD09
:1006000020C0C9019595879590931A02809319028D
:100610008F3F910529F024F0B0921A02A09219029E
:100620008091190290911A02F501E81BF90BEE5F17
:10063000FE4F80818093190210921A0210921802C4
:1006400022C088279927821B930B959587959093B5
:100650001A02809319028F3F910529F024F0B0927D
:100660001A02A09219028091190290911A02F501C2
:10067000E81BF90BEE5FFE4F808180931902109208
:100680001A0260921802809100018823D9F08091AB
:10069000190290911A028A3F9105A4F485B1872529
:1006A00085B903C08BB180588BB980E889DE892B6E
:1006B000C9F3809119028093B3008091B30088BD83
:1006C00088B587BD8091190290911A028B3F9105E0
:1006D0007CF08092B3008091B30088BD88B587BD5F
:1006E000852D8A95F1F7589888B18F7C88B907C015
:1006F0008093B3008091B30088BD88B587BDEE2498
:10070000FF2483E0CEDCEC0186E0CBDC880F991F70
:10071000880F991F815D924088F082E00B3818079E
:100720001CF40F5F1F4F16C0299A8092B30080916E
:10073000B30088BD88B587BD99240AC021EB003E6F
:1007400012071CF00150104005C029989924939479
:1007500000E010E0CC0FDD1FCC0FDD1FCA56D140EA
:1007600058F421EDC21627E0D20624F40894C11CE7
:10077000D11C0EC05A9A0AC080E3C81688EFD8066A
:1007800024F00894C108D10803C05A98CC24DD2471
:1007900021EEE2162EE2F20620F40894E11CF11C90
:1007A0000AC08092B3008091B30088BD88B587BD30
:1007B0002A98EE24FF248091120290911302815511
:1007C000934C08F409CF109213021092120204CF36
:0407D000F894FFCFCB
:1007D4000101010203040506060707080809090ABE
:1007E4000A0B0C0D0E0F10111213141516171819ED
:1007F4001A1B1C1D1E1F20212223242526272829DD
:100804002A2B2C2D2E2F30313233343536373839CC
:100814003A3B3C3D3E3F40414243444546474849BC
:100824004A4B4C4D4E4F50515253545556575859AC
:100834005A5B5C5D5E5F606162636465666768699C
:100844006A6B6C6D6E6F707172737475767778798C
:100854007A7B7C7D7E7F808182838485868788897C
:100864008A8B8C8D8E8F909192939495969798996C
:100874009A9B9C9D9E9FA0A1A2A3A4A5A6A7A8A95C
:10088400AAABACADAEAFB0B1B2B3B4B5B6B7B8B94C
:10089400BABBBCBDBEBFC0C1C2C3C4C5C6C7C8C93C
:1008A400CACBCCCDCECFD0D1D2D3D4D5D6D7D8D92C
:1008B400DADBDCDDDEDFE0E1E2E3E4E5E6E7E8E91C
:1008C400EAEBECEDEFF3F7FBFFFFFFFFFFFFFFFFAA
:0208D400FFFF24
:00000001FF
